:020000021000EC
:1000000017D102001301017A174500001305452896
:10001000974500009385C527174600001306C6695B
:1000200063FCC5008322050023A05500130545008D
:1000300093854500E3E8C5FE174500001305C56735
:1000400097450000938505766378B5002320050069
:1000500013054500E36CB5FE97220000938282F4FD
:1000600073905230EF201035EF0000016F00000058
:080070006F0000006780000032
:10007800130101FF23261100232481001304010129
:10008800EF20C02A93070000138507008320C100D2
:10009800032481001301010167800000130101FEA0
:1000A800232E8100130401022326A4FE9307F0FFE8
:1000B800138507000324C1011301010267800000B2
:1000C800130101FE232E1100232C810013040102C9
:1000D8002326A4FE13059000EFF05FFC93070500AC
:1000E800138507008320C101032481011301010244
:1000F80067800000130101FE232E81001304010212
:100108002326A4FE9307F0FF138507000324C101EB
:100118001301010267800000130101FE232E110064
:10012800232C8100130401022326A4FE2324B4FEF9
:100138000325C4FEEF30001193070500638C070008
:10014800832784FE3727000023A2E70093070000D7
:100158006F00000113059000EFF0DFF99307050029
:10016800138507008320C1010324810113010102C3
:1001780067800000130101FE232E81001304010291
:100188002326A4FE0327C4FE930710006308F70084
:100198000327C4FE930720006316F7009307100097
:1001A8006F00800093070000138507000324C10136
:1001B8001301010267800000130101FE232E810054
:1001C800130401022326A4FE9307F0FF13850700FA
:1001D8000324C1011301010267800000130101FE1D
:1001E800232E1100232C8100130401022326A4FED0
:1001F8002324B4FE2322C4FE0325C4FEEF3080046A
:100208009307050063860700930700006F0000014D
:1002180013059000EFF05FFA9307050013850700B8
:100228008320C101032481011301010267800000BA
:10023800130101FE232E8100130401022326A4FECC
:100248009307F0FF138507000324C101130101027E
:1002580067800000130101FE232E1100232C81006A
:10026800130401022326A4FE2324B4FE2322C4FE81
:1002780013059000EFF0DFFB9307050013850700D7
:100288008320C1010324810113010102678000005A
:10029800130101FE232E8100130401022326A4FE6C
:1002A800B747010003A787698327C4FE3307F70010
:1002B800B74701009387077A6360F702B7470100E1
:1002C80003A787698327C4FE3307F700B7D702005F
:1002D8009387C77963F6E7009307F0FF6F00000381
:1002E800B747010003A787698327C4FE3307F700D0
:1002F800B747010023ACE768B747010003A7876940
:100308008327C4FEB307F040B307F700138507003F
:100318000324C1011301010267800000130101FEDB
:10032800232E8100130401022326A4FE9307F0FF65
:10033800138507000324C10113010102678000002F
:10034800130101FD23261102232481021304010352
:10035800232EA4FC232CB4FC232AC4FC832784FD6D
:100368002324F4FE832744FD2322F4FE0325C4FD41
:10037800EF20506D93070500638A0706232604FEC5
:100388006F008005032784FE8327C4FEB307F700A8
:1003980083C7070093850700B74701001385C77512
:1003A800EF104061032784FE8327C4FEB307F700DC
:1003B80003C707009307A000631AF7009305D0004E
:1003C800B74701001385C775EF10C05E8327C4FEC9
:1003D800938717002326F4FE0327C4FE832744FDD2
:1003E800E362F7FA832744FD6F00000113059000CC
:1003F800EFF0DFF293070500138507008320C102A1
:10040800032481021301010367800000130101FE28
:10041800232E810013040102231704FEB707E0F816
:100428009387470083A707002317F4FE8357E4FE4A
:10043800138507000324C10113010102678000002E
:10044800130101FE232E8100130401029307050006
:100458002317F4FEB707E0F8938747000357E4FE35
:1004680023A0E700130000000324C10113010102C7
:1004780067800000130101FE232E1100232C810048
:1004880013040102930705002317F4FE8357E4FEC3
:100498006382070A0357E4FE93071000630CF7080A
:1004A8000357E4FE930720006306F7080357E4FEAA
:1004B800930730006300F7080357E4FE93074000F2
:1004C800630AF7060357E4FE930750006304F70630
:1004D8000357E4FE93076000630EF7040357E4FE36
:1004E800930770006308F7040357E4FE930780003E
:1004F8006302F7040357E4FE93079000630CF702C6
:100508000357E4FE9307A0006306F7020357E4FECF
:100518009307B0006300F7020357E4FE9307C00097
:10052800630AF70093055005B74701001385C728EC
:10053800EF2080068357E4FE3747010013078756EC
:1005480093974700B307F70083D727001385070061
:100558008320C10103248101130101026780000087
:10056800130101FE232E1100232C81001304010224
:10057800930705002317F4FE8357E4FE6382070AF6
:100588000357E4FE93071000630CF7080357E4FED3
:10059800930720006306F7080357E4FE930730002B
:1005A8006300F7080357E4FE93074000630AF70661
:1005B8000357E4FE930750006304F7060357E4FE6D
:1005C80093076000630EF7040357E4FE9307700077
:1005D8006308F7040357E4FE930780006302F704F7
:1005E8000357E4FE93079000630CF7020357E4FEF9
:1005F8009307A0006306F7020357E4FE9307B000D1
:100608006300F7020357E4FE9307C000630AF7008C
:1006180093051006B74701001385C728EF10D07758
:100628008357E4FE3747010013078756939747001F
:10063800B307F70083A74700138507008320C1018C
:10064800032481011301010267800000130101FEE8
:10065800232E1100232C81001304010293070500A7
:100668002317F4FE8357E4FE6382070A0357E4FE68
:1006780093071000630CF7080357E4FE9307200064
:100688006306F7080357E4FE930730006300F70892
:100698000357E4FE93074000630AF7060357E4FE96
:1006A800930750006304F7060357E4FE93076000BE
:1006B800630EF7040357E4FE930770006308F7041A
:1006C8000357E4FE930780006302F7040357E4FE30
:1006D80093079000630CF7020357E4FE9307A0000A
:1006E8006306F7020357E4FE9307B0006300F702BE
:1006F8000357E4FE9307C000630AF70093059007C9
:10070800B74701001385C728EF1010698357E4FE27
:10071800374701001307875693974700B307F70039
:1007280083A7C700138507008320C1010324810123
:100738001301010267800000130101FD2326110245
:10074800232481021304010393070500138705007E
:10075800231FF4FC93070700A30EF4FC8357E4FD62
:100768006382070A0357E4FD93071000630CF70838
:100778000357E4FD930720006306F7080357E4FDD9
:10078800930730006300F7080357E4FD9307400020
:10079800630AF7060357E4FD930750006304F7065E
:1007A8000357E4FD93076000630EF7040357E4FD65
:1007B800930770006308F7040357E4FD930780006C
:1007C8006302F7040357E4FD93079000630CF702F4
:1007D8000357E4FD9307A0006306F7020357E4FDFF
:1007E8009307B0006300F7020357E4FD9307C000C6
:1007F800630AF70093055008B74701001385C72817
:10080800EF1090598347D4FD638C07020347D4FD4A
:10081800930710006306F7020347D4FD93072000EF
:100828006300F7020347D4FD93073000630AF7001B
:1008380093056008B74701001385C728EF10D05506
:10084800232604FE8357E4FD13850700EFF05FD1EC
:100858002326A4FE0327C4FEB707C0F8B307F70092
:10086800138707008347D4FD2320F70013000000F7
:100878008320C10203248102130101036780000061
:10088800130101FD2326110223248102130401030D
:1008980093070500231FF4FC8357E4FD6382070ACE
:1008A8000357E4FD93071000630CF7080357E4FDB2
:1008B800930720006306F7080357E4FD9307300009
:1008C8006300F7080357E4FD93074000630AF7063F
:1008D8000357E4FD930750006304F7060357E4FD4C
:1008E80093076000630EF7040357E4FD9307700055
:1008F8006308F7040357E4FD930780006302F704D5
:100908000357E4FD93079000630CF7020357E4FDD7
:100918009307A0006306F7020357E4FD9307B000AE
:100928006300F7020357E4FD9307C000630AF7006A
:1009380093055009B74701001385C728EF10D04524
:10094800930740002326F4FE232404FE8357E4FD86
:1009580013850700EFF0DFC02324A4FE032784FEDD
:10096800B707C0F8B307F70083A707002326F4FEEC
:100978008327C4FE138507008320C1020324810254
:100988001301010367800000130101FD23261102F2
:100998002324810213040103232EA4FC232604FE2E
:1009A800EF0080032326A4FE0327C4FE8327C4FD8B
:1009B800B367F7002326F4FEB727C0F80327C4FE61
:1009C80023A0E700130000008320C1020324810252
:1009D8001301010367800000130101FF2326810032
:1009E80013040101B727C0F883A707001385070080
:1009F8000324C1001301010167800000130101FEF7
:100A0800232E1100232C81001304010293070500F3
:100A1800A307F4FE8347F4FE638C07020347F4FE42
:100A2800930710006306F7020347F4FE93072000BC
:100A38006300F7020347F4FE93073000630AF700E8
:100A48009305000DB74701001385C728EF10D03470
:100A5800B707E0F80347F4FE23A0E70013000000FF
:100A68008320C10103248101130101026780000072
:100A7800130101FF2326810013040101B707E0F8E1
:100A880083A7070093F7F70F138507000324C10016
:100A98001301010167800000130101FE232E1100DC
:100AA800232C8100130401022326A4FE938705004A
:100AB8002315F4FE8357A4FE6382070A0357A4FE96
:100AC80093071000630CF7080357A4FE9307200050
:100AD8006306F7080357A4FE930730006300F7087E
:100AE8000357A4FE93074000630AF7060357A4FEC2
:100AF800930750006304F7060357A4FE93076000AA
:100B0800630EF7040357A4FE930770006308F70405
:100B18000357A4FE930780006302F7040357A4FE5B
:100B280093079000630CF7020357A4FE9307A000F5
:100B38006306F7020357A4FE9307B0006300F702A9
:100B48000357A4FE9307C000630AF7009305600EDD
:100B5800B74701001385C728EF1010248327C4FE68
:100B6800639A07009305700EB74701001385C728DD
:100B7800EF1090220357A4FE8327C4FE83D60700F4
:100B8800B74701001386076C930707009397170070
:100B9800B387E70093972700B307F6002390D700A1
:100BA8000357A4FE8327C4FE83A64700B747010066
:100BB8001386076C9307070093971700B387E7001E
:100BC80093972700B307F60023A2D7000357A4FE84
:100BD8008327C4FE83A68700B74701001386076CE6
:100BE8009307070093971700B387E70093972700A9
:100BF800B307F60023A4D700130000008320C10127
:100C0800032481011301010267800000130101FD23
:100C1800232611022324810213040103231104FE55
:100C2800231004FE231704FE231F04FCA30E04FC58
:100C3800230E04FC9307D0002324F4FE232204FE91
:100C4800F32700309380070093870000232CF4FCDF
:100C5800EFF01FE293070500230EF4FCEFF00FFB03
:100C6800930705002310F4FE232204FE6F0080057D
:100C7800B747010013878756832744FE9397470099
:100C8800B307F70083D72700231FF4FC035704FE9C
:100C98008357E4FD6312F702B747010013878756AD
:100CA800832744FE93974700B307F70083D70700CD
:100CB8002324F4FE6F00C001832744FE93871700A6
:100CC8002322F4FE032744FE9307C000E3F2E7FA69
:100CD800032784FE9307C00063E6E706832784FEA4
:100CE8009397070193D7070113850700EFF05FB9C2
:100CF80093070500A30EF4FC8347D4FD1385070072
:100D0800EFF0DFCF832784FD93E78700232AF4FCE5
:100D1800832744FD73900730B74701009386076C1B
:100D2800032784FE9307070093971700B387E7000C
:100D380093972700B387F60083D707002317F4FE9D
:100D48006F008000EF00C00B0357E4FE835704FEDA
:100D5800631CF708B74701009386076C032784FED6
:100D68009307070093971700B387E7009397270027
:100D7800B387F60083A7470063880706B7470100D3
:100D88009386076C032784FE930707009397170041
:100D9800B387E70093972700B387F60003A64700B9
:100DA800B74701009386076C032784FE9307070063
:100DB80093971700B387E70093972700B387F60048
:100DC80083A7870013850700E7000600835704FE02
:100DD80013850700EFF0CFE68347C4FD13850700AE
:100DE800EFF0DFC16F008000EF008001130000000A
:100DF8008320C102032481021301010367800000DC
:100E0800130101FF2326110023248100130401018B
:100E1800B74701001385C72AEF2080291300000077
:100E28008320C100032481001301010167800000B1
:100E3800130101FE232E1100232C8100130401024B
:100E48002326A4FE8327C4FE639A07009305400166
:100E5800B74701001385472CEF1000748327C4FEA1
:100E6800239007008327C4FE23A407008327C4FE1A
:100E780023A607008327C4FE130710002388E70072
:100E88008327C4FE13071000A388E7008327C4FE46
:100E980037D77B021307A78623A2E7008327C4FE60
:100EA800371700F823AAE700130000008320C101C8
:100EB800032481011301010267800000130101FD71
:100EC800232611022324810213040103232EA4FCE8
:100ED8008327C4FD639A07009305A003B747010061
:100EE8001385472CEF10406B8327C4FD83A7470168
:100EF800639A07009305B003B74701001385472C91
:100F0800EF1080698327C4FD83D70700638A070031
:100F18009305C003B74701001385472CEF10C0673E
:100F2800232004FE232204FE232404FE232604FE99
:100F38008327C4FD83D7070013850700EFF00FF15F
:100F48002326A4FE8327C4FD83D707001385070043
:100F5800EFF04FD2930705002310F4FEB7170100F6
:100F6800938707252322F4FE8327C4FD2324F4FE58
:100F78008327C4FD83C70701638007048327C4FD53
:100F880003D707008327C4FD83C71701938507008C
:100F980013050700EFF04FFA8327C4FD03D70700B6
:100FA800930704FE9305070013850700EFF0DFAEF3
:100FB8000325C4FEEFF05F9D0325C4FDEF0080010B
:100FC800130000008320C1020324810213010103DE
:100FD80067800000130101FB2326110423248104E8
:100FE8002322210523203105232E4103232C5103DD
:100FF800232A6103232871032326810323249103D1
:1010080013040105232EA4FA8327C4FB639A07005F
:101018009305B006B74701001385472CEF10C0575A
:101028008327C4FB83A74701639A07009305C0067B
:10103800B74701001385472CEF100056232604FC00
:10104800232404FC93070000130800002320F4FC69
:10105800232204FD8327C4FB83A7470113850700C8
:10106800EF00000D2326A4FC8327C4FB83A74701B8
:1010780013850700EF0040102324A4FC832784FC79
:10108800138C0700930C000093190C00130900003F
:101098008327C4FC138B0700930B0000B367690117
:1010A8002320F4FCB3E779012322F4FC8327C4FB53
:1010B80083A74700138A0700930A0000832604FCCD
:1010C800032744FCB3874601138607003336D6004E
:1010D8003308570133070601130807002320F4FCDF
:1010E800232204FD8327C4FB83A74701832504FC2F
:1010F800032644FC13850700EF00800C1300000052
:101108008320C104032481040329410483290104A1
:10111800032AC103832A8103032B4103832B010381
:10112800032CC102832C8102130101056780000092
:10113800130101FE232E1100232C81001304010248
:101148002326A4FE8327C4FE639A0700930500089C
:10115800B74701001385472CEF1000448327C4FECE
:1011680083A70700138507008320C1010324810199
:101178001301010267800000130101FE232E1100F4
:10118800232C8100130401022326A4FE8327C4FE16
:10119800639A07009305B008B74701001385472CE9
:1011A800EF10803F8327C4FE83A7470013850700FD
:1011B8008320C1010324810113010102678000001B
:1011C800130101FD23261102232481022322210376
:1011D8002320310313040103232EA4FC2328B4FC89
:1011E800232AC4FC8327C4FD639A0700930560097A
:1011F800B74701001385472CEF10003A832704FDF9
:101208002326F4FE832744FD13D907009309000021
:10121800232424FF8327C4FD032784FE23A6E70095
:101228008327C4FD0327C4FE23A4E700130000009E
:101238008320C10203248102032941028329010278
:101248001301010367800000130101FD2326110229
:101258002324810213040103232EA4FC232604FE65
:101268008327C4FD638A07008327C4FD2326F4FE71
:101278000325C4FEEFF01FD6130000008320C1022F
:10128800032481021301010367800000130101FE9A
:10129800232E1100232C8100130401022326A4FE0F
:1012A8008327C4FE639A070093052002B74701000D
:1012B8001385472EEF10402E8327C4FE1307100016
:1012C8002390E7008327C4FE23A207008327C4FED8
:1012D80023A407008327C4FE239607008327C4FEA0
:1012E800239707008327C4FE239807008327C4FE9B
:1012F800239907008327C4FE13077000238CE70097
:101308008327C4FE238B07008327C4FE13073000FE
:10131800A38CE7008327C4FE238D07008327C4FE20
:1013280013070001A38BE7008327C4FEA38D0700E2
:101338008327C4FE1307B002239AE7008327C4FE5D
:10134800238E07008327C4FE13073000A38EE7000F
:101358008327C4FE373700F823A0E70213000000F4
:101368008320C10103248101130101026780000069
:10137800130101FD23261102232481021304010312
:10138800232EA4FC8327C4FD639A07009305000657
:10139800B74701001385472EEF1000208327C4FDAF
:1013A80083A70702639A070093051006B747010051
:1013B8001385472EEF10401E232604FE232004FE2B
:1013C800232204FE232404FE8327C4FD83D70700B9
:1013D80013850700EFF08FA72326A4FE8327C4FDFB
:1013E80083D7070013850700EFF0CF889307050020
:1013F8002310F4FEB7270100938747B52322F4FE94
:101408008327C4FD2324F4FE8327C4FD83C7C701B3
:10141800638007048327C4FD03D707008327C4FD1F
:1014280083C7D7019385070013050700EFF0CFB0F6
:101438008327C4FD03D70700930704FE930507001D
:1014480013850700EFF04FE50325C4FEEFF0CFD377
:101458000325C4FDEF0080160325C4FDEF00C02856
:101468000325C4FDEF0000300325C4FDEF00803ED6
:101478000325C4FDEF00404C0325C4FDEF00001F09
:101488000325C4FDEF00005D130000008320C102A6
:10149800032481021301010367800000130101FD89
:1014A800232611022324810213040103232EA4FC02
:1014B8008327C4FD639A07009305C008B747010056
:1014C8001385472EEF10400D8327C4FD83A707021D
:1014D800639A07009305D008B74701001385472E84
:1014E800EF10800B8327C4FD83A707022326F4FE91
:1014F800A30504FE8327C4FE83A7C702A305F4FE41
:101508008347B4FE93E707F8A305F4FE0347B4FE48
:101518008327C4FE23A6E702130000008320C1022C
:10152800032481021301010367800000130101FDF8
:10153800232611022324810213040103232EA4FC71
:101548008327C4FD639A07009305D009B7470100B4
:101558001385472EEF1040048327C4FD83A7070295
:10156800639A07009305E009B74701001385472EE2
:10157800EF1080028327C4FD83A707022326F4FE09
:10158800A30504FE8327C4FE83A7C702A305F4FEB0
:101598008347B4FE93F7F707A305F4FE0347B4FEA9
:1015A8008327C4FE23A6E702130000008320C1029C
:1015B800032481021301010367800000130101FD68
:1015C800232611022324810213040103232EA4FCE1
:1015D8008327C4FD639A07009305E00AB747010013
:1015E8001385472EEF00507B8327C4FD83A707028E
:1015F800639A07009305F00AB74701001385472E41
:10160800EF0090798327C4FD83A707022326F4FE01
:101618008327C4FD83D747012315F4FE0325C4FDA2
:10162800EFF0DFE78357A4FE13F7F70F8327C4FE15
:1016380023A0E7028357A4FE93D787009397070157
:1016480093D7070113F7F70F8327C4FE23A2E702F6
:101658000325C4FDEFF09FED130000008320C102B5
:10166800032481021301010367800000130101FDB7
:10167800232611022324810213040103232EA4FC30
:101688008327C4FD639A07009305700DB7470100CF
:101698001385472EEF0050708327C4FD83A70702E8
:1016A800639A07009305800DB74701001385472EFD
:1016B800EF00906E8327C4FD83A707022326F4FE5C
:1016C8008327C4FD83C79701138707008327C4FEB8
:1016D80023A6E702130000008320C102032481022D
:1016E8001301010367800000130101FD2326110285
:1016F8002324810213040103232EA4FC8327C4FDA1
:10170800639A07009305300FB74701001385472EEA
:10171800EF0090688327C4FD83A70702639A070038
:101728009305400FB74701001385472EEF00D06699
:101738008327C4FD83A707022326F4FE8327C4FD5D
:1017480083C78701138707008327C4FE23A4E70202
:10175800130000008320C102032481021301010346
:1017680067800000130101FD232611022324810252
:1017780013040103232EA4FC8327C4FD639A0700E6
:1017880093058012B74701001385472EEF00D060FC
:101798008327C4FD83A70702639A07009305901265
:1017A800B74701001385472EEF00105F8327C4FD5C
:1017B80083A707022326F4FE8327C4FD83C7770186
:1017C800138707008327C4FE23AAE700130000003D
:1017D8008320C102032481021301010367800000F2
:1017E800130101FD2326110223248102130401039E
:1017F800232EA4FC8327C4FD639A07009305601376
:10180800B74701001385472EEF0010598327C4FD01
:1018180083A70702639A070093057013B74701006F
:101828001385472EEF0050578327C4FD83A707026F
:101838002326F4FE8327C4FE83A7470393F7F70FF5
:10184800138507008320C1020324810213010103C9
:1018580067800000130101FE232E1100232C810054
:10186800130401022326A4FE8327C4FE639A0700FB
:1018780093054014B74701001385472EEF00D05158
:101888008327C4FE83A70702639A070093055014B1
:10189800B74701001385472EEF0010508327C4FE79
:1018A80003C7A7018327C4FE83A7070223A8E7026B
:1018B800130000008320C1010324810113010102E8
:1018C80067800000130101FD2326110223248102F1
:1018D80013040103232EA4FC8327C4FD639A070085
:1018E8009305F015B74701001385472EEF00D04A3E
:1018F8008327C4FD83A70702639A07009305001690
:10190800B74701001385472EEF0010498327C4FD10
:1019180083A707022326F4FE8327C4FE83A7870331
:1019280093F7F70F138507008320C1020324810270
:101938001301010367800000130101FD2326110232
:101948002324810213040103232EA4FC8327C4FD4E
:10195800639A07009305D016B74701001385472EF1
:10196800EF0090438327C4FD83A70702639A07000B
:101978009305E016B74701001385472EEF00D041C5
:101988008327C4FD83A707022326F4FE8327C4FD0B
:1019980083C7B701138707008327C4FE23AEE70276
:1019A800130000008320C1020324810213010103F4
:1019B80067800000130101FD232611022324810200
:1019C80013040103232EA4FC93870500A30DF4FC44
:1019D8008327C4FD639A070093059018B747010051
:1019E8001385472EEF00503B8327C4FD83A70702CA
:1019F800639A07009305A018B74701001385472E7F
:101A0800EF0090398327C4FD83A707022326F4FE3D
:101A1800A30504FE0325C4FDEFF09FDC9307050032
:101A2800A305F4FE8347B4FE93F70702E38407FE99
:101A38000347B4FD8327C4FE23A0E7021300000078
:101A4800130000008320C102032481021301010353
:101A580067800000130101FD23261102232481025F
:101A680013040103232EA4FC8327C4FD639A0700F3
:101A780093053022B74701001385472EEF00D03178
:101A88008327C4FD83A70702639A070093054022B2
:101A9800B74701001385472EEF0010308327C4FD98
:101AA80083A707022326F4FE8327C4FD83C76701A3
:101AB800138707008327C4FE23A2E7021300000050
:101AC8008320C102032481021301010367800000FF
:101AD800130101FD232611022324810213040103AB
:101AE800232EA4FC8327C4FD639A070093050024D2
:101AF800B74701001385472EEF00102A8327C4FD3E
:101B080083A70702639A070093051024B7470100CB
:101B18001385472EEF0050288327C4FD83A70702AB
:101B28002326F4FE8327C4FE83A7870293F7F70FC3
:101B380093F7F70093F7F70F138507008320C10287
:101B4800032481021301010367800000130101FDD2
:101B5800232611022324810213040103232EA4FC4B
:101B6800A30704FE232404FE8327C4FD638607021B
:101B78008327C4FD2324F4FE032584FEEFF05FF5DC
:101B880093070500A307F4FE8307F4FE9385070077
:101B9800032584FEEF008001130000008320C102AA
:101BA800032481021301010367800000130101FE71
:101BB800232E1100232C8100130401022326A4FEE6
:101BC80093870500A305F4FE8307B4FE1307C0003E
:101BD800636CF70413972700B7470100938787358D
:101BE800B307F70083A70700678007000325C4FE33
:101BF800EF0000056F0080030325C4FEEF004007D7
:101C08006F00C0020325C4FEEF00802C6F000002A5
:101C18000325C4FEEF0040326F0040010325C4FED7
:101C2800EF0080346F0080001300000013000000F4
:101C38008320C10103248101130101026780000090
:101C4800130101FE232E1100232C8100130401022D
:101C58002326A4FE0325C4FEEFF09FB8130000005E
:101C68008320C10103248101130101026780000060
:101C7800130101FD23261102232481021304010309
:101C8800232EA4FC8327C4FD639A07009305102A1A
:101C9800B74701001385472EEF0010108327C4FDB6
:101CA80083A70702639A07009305202AB747010014
:101CB8001385472EEF00500E8327C4FD83A78700A6
:101CC800639A07009305302AB74701001385472E0A
:101CD800EF00900CA30504FE8327C4FD83A78700AB
:101CE8002322F4FE0325C4FDEFF09FAF9307050000
:101CF800A305F4FE8347B4FE93F717006380071C1F
:101D0800B747010083C7476B6392070AB7470100CB
:101D180083C7576B639C07088327C4FD03D7270134
:101D28008327C4FD83D7E700637AF7068327C4FDBA
:101D380083A7070203A707028327C4FD83D72701C8
:101D480093860700832744FEB387D7001377F70FDE
:101D58002380E7008327C4FD83D727011387070063
:101D6800832744FEB387E70083C7070093850700EE
:101D7800B747010013854730EF10C0158327C4FD0E
:101D880083D7270193871700139707011357070174
:101D98008327C4FD2399E7006F0040128327C4FD01
:101DA80083A7070283A707026F004011B747010006
:101DB80083C7476B638007088327C4FD83A707028F
:101DC80083A70702A301F4FEB747010083A7C769E9
:101DD800034734FE1306070093850700B747010041
:101DE80013858731EF10000FB747010083A7C76934
:101DF800034734FE2380E700B747010083A7C7697C
:101E080013871700B747010023AEE768B7470100FB
:101E180003A7C769B70734006362F70AB747010029
:101E2800238A076AB74701003707300023AEE768FF
:101E38006F00C008B747010083C7576B6380070866
:101E4800232604FE6F004005B747010083A7076AF1
:101E580083C707002301F4FEB747010083A7076A79
:101E6800034724FE1306070093850700B7470100C0
:101E780013858733EF100006B747010083A7076A69
:101E880013871700B747010023A0E76A8327C4FE1A
:101E9800938717002326F4FE0327C4FEB707040020
:101EA800E344F7FAB7470100A38A076AB747010076
:101EB8003707300023A0E76A6F00400013000000D6
:101EC8008320C102032481021301010367800000FB
:101ED800130101FE232E1100232C8100130401029B
:101EE8002326A4FE8327C4FE639A07009305B02D1A
:101EF800B74701001385472EEF00006A8327C4FE09
:101F080083A70702639A07009305C02DB74701000E
:101F18001385472EEF0040688327C4FE83A7070276
:101F280083A70702130000008320C1010324810155
:101F38001301010267800000130101FE232E110026
:101F4800232C8100130401022326A4FE0325C4FECA
:101F5800EFF01FB8130000008320C10103248101A2
:101F68001301010267800000130101FE232E1100F6
:101F7800232C8100130401022326A4FE0325C4FE9A
:101F8800EFF05F94130000008320C1010324810156
:101F98001301010267800000130101F823201100DA
:101FA80023285100232A6100232C7100232E81004D
:101FB800232091022322A1022324B1022326C10255
:101FC8002328D102232AE102232CF102232E010324
:101FD8002320110523222105232431052326410529
:101FE80023285105232A6105232C7105232E8105F9
:101FF800232091072322A1072324B1072326C10701
:102008002328D107232AE107232CF107732520343D
:10201800F325103413060100EF008022832001000D
:102028008322010103234101832381010324C10188
:102038008324010203254102832581020326C1026C
:102048008326010303274103832781030328C10350
:10205800832801040329410483298104032AC10434
:10206800832A0105032B4105832B8105032CC10518
:10207800832C0106032D4106832D8106032EC106FC
:10208800832E0107032F4107832F810713010108BE
:10209800730020306F000000130101FD2326110298
:1020A8002324810213040103232EA4FCB76700F83C
:1020B8002326F4FE8327C4FE23A00700B7470100A8
:1020C8001385C738EF00D07E130000008320C102BB
:1020D800032481021301010367800000130101FC3E
:1020E800232E1102232C8102232A210323283103C2
:1020F8002326410323245103232261032320710350
:1021080013040104B71700F8232EF4FC232C04FC55
:10211800232A04FC93070000130800002324F4FC7E
:10212800232604FD0325C4FDEFF08F80232CA4FC97
:102138000325C4FDEFF04F84232AA4FC832744FD24
:10214800138B0700930B000093190B001309000071
:10215800832784FD138A0700930A0000B3674901A7
:102168002324F4FCB3E759012326F4FC832684FCDA
:102178000327C4FCB7D57B029385A5861306000008
:10218800B387B600138507003335D5003308C70079
:1021980033070501130807002324F4FC232604FD54
:1021A800832584FC0326C4FC0325C4FDEFF04F817E
:1021B800130000008320C103032481030329410382
:1021C80083290103032AC102832A8102032B4102C6
:1021D800832B01021301010467800000130101FF32
:1021E800232611002324810013040101B7470100AD
:1021F8001385473AEF00104E6F000000130101FEEF
:10220800232E810013040102B717000093878780EB
:102218002326F4FE8327C4FE73A04730B7270000A7
:10222800938787802324F4FE832784FE73900730E6
:10223800130000000324C10113010102678000009C
:10224800130101FD23261102232481021304010333
:10225800232EA4FC232CB4FC232AC4FC8327C4FD0E
:1022680093D7F70193F7F70F2326F4FE8327C4FDCE
:1022780093F7F7002324F4FE8327C4FE638C070832
:10228800032784FE93077000630CF702032784FE7C
:102298009307B000630AF702032784FE9307300010
:1022A8006314F706832744FD9387C707032784FD34
:1022B80023A0E700032544FDEFF01FDE6F00C005F3
:1022C800EFF0DFE16F004005B71700009387078044
:1022D8002322F4FE832744FE73A04730732510346D
:1022E8002322A100EFE09F920325410073101534CB
:1022F800B7170000938787802320F4FE832704FE06
:1023080073A047306F004001EFF05FED130000004D
:102318006F008000EFF09FEC130000008320C102E3
:10232800032481021301010367800000130101DE09
:10233800232E1120232C812013040122B76700F8D3
:102348002324F4FEB74701001385C775EFE01FF497
:10235800B74701009387C77513071000238BE70061
:10236800B74701009387C77513071000238EE7004E
:10237800B74701001385C775EFE09FFFB747010016
:1023880013850778EFE0DFAAB747010013850778C0
:10239800EFE0DFB2EFF09FE6A30304FE930744EEFD
:1023A80013070010130607009305000013850700A4
:1023B800EF00100A930744DE130700101306070006
:1023C8009305000013850700EF009008B747010048
:1023D8009387C775130710002397E700B7470100D5
:1023E8009387C77523990700B74701009387C77577
:1023F800130744DE23A4E700B747010083C7476BF0
:10240800E39C07FEB747010083C7576BE39607FEB7
:10241800B74701009387C77503D72701B74701005E
:102428009387C77583D7E700E318F7FC834744DE33
:102438001307B00B6388E7041307C00C6384E7082D
:102448001307A00A6390E70CB7470100238A076ABD
:10245800B7470100A38A076AB747010083C7476BDC
:1024680013870700B747010083C7576B1386070018
:1024780093050700B747010013850742EF00902531
:102488006F008009B747010013071000238AE76A25
:10249800B7470100A38A076AB747010083C7476B9C
:1024A80013870700B747010083C7576B13860700D8
:1024B80093050700B747010013854744EF009021B3
:1024C8006F008005B7470100238A076AB7470100F4
:1024D80013071000A38AE76AB747010083C7476B51
:1024E80013870700B747010083C7576B1386070098
:1024F80093050700B747010013854744EF00901D77
:102508006F008001B7470100238A076AB7470100B7
:10251800A38A076A13000000B74701009387C775AD
:1025280023990700232604FE6F0000038327C4FEB7
:10253800130704FFB307F70083C747DF9385070036
:10254800B747010013850746EF00D0188327C4FE5C
:10255800938717002326F4FEB74701009387C775B2
:1025680083D7E700138707008327C4FEE3C0E7FC8F
:10257800B74701009387C77583D7E700138707001C
:10258800930744DE13060700930500001385070030
:10259800EF00006C6FF05FE6130101FE232E1100BF
:1025A800232C8100130401022326A4FE2324B4FE55
:1025B800032684FE8325C4FEB74701001385074B15
:1025C800EF0050116F00000083D7C500130101FE12
:1025D800232C8100232A9100232E11002328210176
:1025E8002326310113F7870093040500138405009F
:1025F800631E071403A74500634AE00003A7050408
:102608006346E000130500006F00C0110327C402F1
:10261800E30A07FE03A904009396370123A00400E8
:1026280063DE060A032544058357C40093F7470071
:10263800638E0700832744003305F540832744034E
:1026480063860700832704043305F5408327C40203
:102658008325040213060500930600001385040071
:10266800E78007009307F0FF0357C4006312F502E1
:1026780083A604009307D00163E4D70CB707402072
:1026880093871700B3D7D70093F71700638A070A11
:1026980083270401232204002320F4009317370121
:1026A80063DC07009307F0FF6316F50083A70400B7
:1026B80063940700232AA4048325440323A0240148
:1026C800E38205F4930744046386F5001385040048
:1026D800EF00C059232A04026FF0DFF283250402B9
:1026E800930610001306000013850400E700070096
:1026F8009307F0FFE31AF5F283A70400E38607F2D5
:102708001307D0016386E700130760016396E700AB
:1027180023A024016FF01FEF8357C40093E7070439
:102728002316F4008320C10103248101832441017D
:10273800032901018329C1001301010267800000F8
:10274800136707042316E4006FF0DFFD83A9050172
:10275800E38A09EA03A9050093F7370023A03501A6
:1027680033093941130700006394070003A74501A3
:102778002324E400E35820E9832784028325040204
:10278800930609001386090013850400E7800700F3
:10279800634CA0008357C4001305F0FF93E70704B8
:1027A8002316F4006FF01FF8B389A9003309A94074
:1027B8006FF05FFC83A70501638A0708130101FE18
:1027C800232C8100232E110013040500630C05003F
:1027D80083278501639807002326B100EF0080173F
:1027E8008325C10097270000938707D06392F502DD
:1027F800832544008397C5006380070413050400FC
:10280800032481018320C101130101026FF0DFDB82
:1028180097270000938747CF6396F50083258400A8
:102828006FF05FFD97270000938707CAE394F5FCD4
:102838008325C4006FF01FFC8320C101032481019C
:102848001305000013010102678000001305000052
:1028580067800000130101FF232481002326110053
:10286800130405002316B5002317C500232005000F
:10287800232205002324050023220506232805001A
:10288800232A0500232C0500130680009305000069
:102898001305C505EF00C03B97170000938787878E
:1028A8002322F402971700009387C78B2324F4028E
:1028B80097170000938747932326F4029717000081
:1028C80093870798232084022328F4028320C100D9
:1028D80003248100130101016780000097050000AF
:1028E800938585ED6F004021130101FF232291009C
:1028F800130680069384F5FFB384C40223202101C4
:102908001389050023248100232611009385440799
:10291800EF0080461304050063000502232005002C
:10292800232225011305C5002324A4001386840649
:1029380093050000EF00C031130504008320C10097
:1029480003248100832441000329010013010101AC
:1029580067800000832785016396070A130101FF3A
:10296800232611002324810097070000938747F747
:102978002324F502972700009387C79083A70700B1
:102988002324050423260504232805046316F500DB
:1029980093071000232CF50013040500EF00C00670
:1029A8002322A40013050400EF0000062324A4003A
:1029B80013050400EF0040052326A4000325440066
:1029C8001306000093054000EFF0DFE803258400BC
:1029D8001306100093059000EFF0DFE70325C4000D
:1029E8001306200093052001EFF0DFE6930710009F
:1029F800232CF4008320C10003248100130101016A
:102A08006780000067800000130101FF972700001E
:102A1800938747872322910083A40700232021015D
:102A28002326110083A784012324810013090500AC
:102A38006396070013850400EFF0DFF193848404A4
:102A480003A4840083A744009387F7FF63DA070091
:102A580083A704006380070883A404006FF05FFE67
:102A68000317C40063140706B707FFFF938717000F
:102A78002322040623200400232204002324040024
:102A88002326F40023280400232A0400232C04000E
:102A980013068000930500001305C405EF00401BD2
:102AA800232A0402232C04022324040423260404D6
:102AB800130504008320C1000324810083244100FE
:102AC8000329010013010101678000001304840633
:102AD8006FF09FF79305400013050900EFF0DFE062
:102AE80023A0A40013040500E31805F69307C0000B
:102AF8002320F9006FF0DFFB130101FD232481027D
:102B080023202103232C4101232A51012328610179
:102B1800232671012326110223229102232E31013B
:102B2800130A0500938A050013048504130900009D
:102B3800130B1000930BF0FF631A04028320C102E9
:102B48000324810213050900832441020329010299
:102B58008329C101032A8101832A4101032B010131
:102B6800832BC100130101036780000083248400C4
:102B7800832944009389F9FF63D6090003240400DC
:102B88006FF09FFB83D7C400637EFB008397E4004C
:102B9800638A77019385040013050A00E7800A0019
:102BA8003369A900938484066FF0DFFC130101FFE9
:102BB800971700009387476D23248100171400009E
:102BC8001304846C3304F440232291002320210150
:102BD800232611001354244093040000138907008E
:102BE80063908404971700009387076A17140000FE
:102BF800130484693304F4401354244093040000FC
:102C080013890700639A84028320C100032481008A
:102C1800832441000329010013010101678000009A
:102C280093972400B307F90083A70700938414003F
:102C3800E78007006FF0DFFA93972400B307F900E5
:102C480083A7070093841400E78007006FF09FFBB9
:102C580013030500630A06002300B3001306F6FFFA
:102C680013031300E31A06FE67800000638405104F
:102C780083A7C5FF130101FF232481002326110028
:102C8800232291001384C5FF63D407003304F400A2
:102C980093040500EF00D02D97270000938787A1A4
:102CA80083A70700639407022322040097270000E4
:102CB80023A287A0032481008320C1001385040078
:102CC80083244100130101016F00D02A6376F402C6
:102CD800832604003307D400639AE70003A707009C
:102CE80083A747003307D7002320E4002322F400FA
:102CF8006FF0DFFB9307070003A747006304070093
:102D0800E37AE4FE83A607003386D70063188602B9
:102D180003260400B386C60023A0D7003386D70055
:102D2800E31AC7F80326070003274700B306D600AF
:102D380023A0D70023A2E7006FF0DFF76378C40071
:102D48009307C00023A0F4006FF0DFF60326040009
:102D5800B306C400631AD700832607000327470079
:102D6800B386C6002320D4002322E40023A28700D0
:102D78006FF05FF467800000130101FE232A9100C1
:102D88009384350093F4C4FF232E1100232C810073
:102D98002328210123263101938484009307C0004E
:102DA80063FAF4069304C00063E8B4061309050047
:102DB800EF00101C972700009387C78F03A7070011
:102DC80013040700631E0406972700009387C78E25
:102DD80083A70700639C07009305000013050900FB
:102DE800EF00402E9727000023A8A78C93850400A6
:102DF80013050900EF00002D9309F0FF631C350B44
:102E08009307C0002320F90013050900EF0090166E
:102E18006F000001E3DA04F89307C0002320F500EF
:102E2800130500008320C10103248101832441018B
:102E3800032901018329C1001301010267800000F1
:102E480083270400B387974063C007069306B00042
:102E580063FAF6002320F4003304F40023209400DE
:102E68006F00400183274400631C87021727000076
:102E78002322F78413050900EF00D00F1305B400CF
:102E880093074400137585FF3307F540E30C07F8F3
:102E98003304E400B387A7402320F4006FF09FF8C1
:102EA8002322F7006FF01FFD1307040003244400DA
:102EB8006FF05FF1130435001374C4FFE30085FA63
:102EC800B305A44013050900EF00C01FE31835F946
:102ED8006FF01FF3130101FC232AF1022322B10230
:102EE8002324C1022326D1022328E102232C010333
:102EF800232E1103971700009387877A232C8100CC
:102F080003A40700232A9100232E1100930405002F
:102F1800630A0400832784016396070013050400ED
:102F2800EFF05FA383258400930641021386040013
:102F3800130504002326D100EF00100F8320C101E0
:102F480003248101832441011301010467800000E7
:102F5800130101FE232A910023282101232E1100A9
:102F6800232C8100232631012324410193040500E9
:102F7800138905006308050083278501639407000A
:102F8800EFF05F9D83A7840103A484006396070084
:102F980013850400EFF01F9C971700009387C75410
:102FA800631EF40403A444008357C40093F7870006
:102FB800638A070683270401638607069309F0FFDF
:102FC800130AA00083278400834509009387F7FF2D
:102FD800639405082324F40063D0070C1306040047
:102FE8009305A00013850400EF0000269307F0FF67
:102FF8006302F5041305A0006F0000049717000092
:10300800938787506316F40003A484006FF0DFF9F8
:10301800971700009387474BE318F4F803A4C400FC
:103028006FF09FF89305040013850400EF00803AC1
:10303800E30605F81305F0FF8320C101032481018D
:1030480083244101032901018329C100032A810046
:1030580013010102678000002324F40013091900FA
:1030680063D807000327840163CEE700638C45011A
:1030780083270400138717002320E4002380B70068
:103088006FF05FF41306040013850400EF00C01B03
:10309800E31A35F36FF01FFA83270400138717002C
:1030A8002320E4001307A0002380E7006FF09FF4BB
:1030B800971700009387C75E9305050003A50700CF
:1030C8006FF01FE9130101FF232481001304050099
:1030D800138505009717000023AE076A2326110001
:1030E800EFD00F9B9307F0FF631CF50097170000C4
:1030F8009387476A83A70700638407002320F400A7
:103108008320C100032481001301010167800000AE
:10311800130101FF23248100138405008395E50032
:1031280023261100EF10800463400502832744051D
:10313800B387A700232AF4048320C1000324810055
:1031480013010101678000008357C40037F7FFFFB0
:103158001307F7FFB3F7E7002316F4006FF0DFFD5E
:1031680083D7C500130101FE232C8100232A910077
:103178002328210123263101232E110093F707105C
:1031880093040500138405001309060093890600BB
:10319800638A07008395E500930620001306000064
:1031A800EF0000408357C40037F7FFFF1307F7FF0E
:1031B800B3F7E7002316F4008315E4000324810124
:1031C8008320C10193860900130609008329C100E1
:1031D800032901011385040083244101130101021D
:1031E8006F00001A130101FF2324810013840500D6
:1031F8008395E50023261100EF00803A9307F0FF3E
:103208000357C4006312F502B7F7FFFF9387F7FF70
:10321800B3F7E7002316F4008320C10003248100DC
:103228001301010167800000B7170000B367F700BA
:103238002316F400232AA4046FF01FFE8395E500EB
:103248006F0040316FC01FF3130101FE232C810072
:10325800232A910023282101232E1100232631013E
:10326800930405001389050013040600630805008C
:103278008327850163940700EFF0CFED97170000CF
:1032880093878726631EF40A03A4440083278401D6
:103298002324F4008357C40093F787006386070C40
:1032A800832704016382070C832704010325040094
:1032B8009379F90F1379F90F3305F5408327440102
:1032C800634AF5009305040013850400EFF08FCEE0
:1032D8006314050A83278400130515009387F7FFF5
:1032E8002324F40083270400138717002320E40015
:1032F8002380370183274401638CA7008357C400C8
:1033080093F71700638E07009307A000631AF9006C
:103318009305040013850400EFF0CFC9631E05046C
:103328008320C1010324810113050900832441017D
:10333800032901018329C1001301010267800000EC
:10334800971700009387471C6316F40003A48400B2
:103358006FF0DFF39717000093870717E318F4F26D
:1033680003A4C4006FF09FF29305040013850400C2
:10337800EF004006E30A05F21309F0FF6FF05FFA69
:10338800130101FF232481001304050013850500A0
:1033980093050600138606009717000023AC073E26
:1033A80023261100EFC0DFF99307F0FF631CF50037
:1033B800971700009387073E83A7070063840700D9
:1033C8002320F4008320C10003248100130101019C
:1033D80067800000130101FF971700009387472CAF
:1033E8002322910083A407002324810023202101A4
:1033F800232611001309050013840500638A0400BD
:1034080083A784016396070013850400EFF08FD427
:10341800971700009387470D6318F40403A444002A
:103428000317C4009317070193D7070193F6870082
:103438006394060A93F60701639C060493079000B9
:103448002320F900136707042316E4001305F0FF8F
:103458008320C10003248100832441000329010043
:103468001301010167800000971700009387C709BF
:103478006316F40003A484006FF09FFA9717000006
:1034880093878704E31EF4F803A4C4006FF05FF980
:1034980093F74700638C070283254403638C050078
:1034A800930744046386F50013050900EFF00FFC49
:1034B800232A04028357C4002322040093F7B7FD8C
:1034C8002316F400832704012320F4008357C40043
:1034D80093E787002316F40083270401639007020B
:1034E8008357C4001307002093F707286388E70071
:1034F8009305040013050900EF0080188357C400E2
:1035080013F71700630C07028327440123240400E0
:10351800B307F040232CF4008327040113050000AF
:10352800E39807F28317C40013F70708E30207F2CA
:1035380093E707042316F4006FF05FF193F7270071
:103548001307000063940700032744012324E400C1
:103558006FF09FFC130101FF232481001304050071
:10356800138505009717000023A6072223261100BC
:10357800EFC01FB59307F0FF631CF5009717000015
:103588009387472183A70700638407002320F4005B
:103598008320C1000324810013010101678000001A
:1035A800130101FF2324810013040500138505007E
:1035B80093050600138606009717000023AC071C26
:1035C80023261100EFC09FC19307F0FF631CF5008D
:1035D800971700009387071C83A7070063840700D9
:1035E8002320F4008320C10003248100130101017A
:1035F80067800000130101F8232A910693840500CF
:103608008395E500232C8106232E1106130406005A
:1036180063DE050083D7C40023A0060093F70708DC
:1036280063900704930700406F00C00313068101ED
:103638002326D100EF00D0388326C100E34C05FCD7
:103648000327C101B7F70000B3F7E70037E7FFFF2B
:10365800B387E70093B7170023A0F6006FF09FFC2D
:10366800930700042320F4008320C1070324810763
:103678008324410713050000130101086780000037
:1036880083D7C500130101FE232C8100232E1100CE
:10369800232A91002328210193F72700138405008A
:1036A80063880702930774042320F4002328F40096
:1036B80093071000232AF4008320C1010324810109
:1036C80083244101032901011301010267800000DD
:1036D8009306C1001306810093040500EFF09FF1E3
:1036E800832581001309050013850400EFF0CFE856
:1036F800631005028317C40013F70720E31E07FAB7
:1037080093F7C7FF93E727002316F4006FF09FF99C
:1037180097F7FFFF9387C71C23A4F4028357C400BD
:103728002320A4002328A40093E707082316F40005
:1037380083278100232AF4008327C10063820702BC
:103748008315E40013850400EF00902C630A05003C
:103758008357C40093F7C7FF93E717002316F400B5
:103768008357C4003369F900231624016FF0DFF48E
:103778006780000067800000832786009387F7FF33
:103788002324F60063DC07000327860163C6E700ED
:103798009307A0006394F5006FF01FAB8327060022
:1037A80013850500138717002320E6002380B70040
:1037B80067800000130101FE232C8100232A910059
:1037C800232821012326310123244101232E11001E
:1037D800130905009389050013040600B304D600F5
:1037E800130AF0FF63169400130500006F00C00170
:1037F800834504001386090013050900EFF0DFF77D
:1038080013041400E31045FF8320C1010324810140
:1038180083244101032901018329C100032A81006E
:103828001301010267800000130101F6232C8108AF
:10383800232A91082328210923263109232E110838
:10384800232441092322510923206109232E7107CA
:10385800232C8107232A91079309050093840500E7
:1038680013090600138406006308050083278501F1
:1038780063940700EFF00F8E971700009387C7C671
:103888006392F41283A4490083D7C40093F7870096
:10389800638E071283A70401638A07129307000245
:1038A800A304F10293070003232201022305F10276
:1038B80023268100930B5002971A0000938ACAC6E8
:1038C800130C1000130BA000130409008347040015
:1038D8006384070063907715B30C244163860C0258
:1038E80093860C00130609009385040013850900CC
:1038F800EFF05FEC9307F0FF6302F52C832641029B
:10390800B38696012322D102834704006388072ADD
:103918009307F0FF1309140023280100232E010048
:10392800232AF100232C0100A30901042324010602
:10393800834509001306500013850A00EF00101292
:103948001304190083270101631A050C13F70701F3
:103958006306070013070002A309E10413F78700B1
:10396800630607001307B002A309E10483460900B0
:103978001307A0026380E60C8327C1011304090022
:1039880093060000130690000347040093051400F3
:10399800130707FD6372E610638A060A232EF100F7
:1039A8006F00C00A97170000938707B66396F40064
:1039B80083A489006FF05FED971700009387C7B065
:1039C800E394F4EC83A4C9006FF01FEC9385040022
:1039D80013850900EFF01FA0E30205EC1305F0FFC3
:1039E8008320C1090324810983244109032901098A
:1039F8008329C108032A8108832A4108032B010867
:103A0800832BC107032C8107832C41071301010A6B
:103A180067800000130414006FF05FEB3305554115
:103A28003315AC00B3E7A7002328F10013090400FD
:103A38006FF01FF00327C100930647000327070014
:103A48002326D10063400704232EE1000347040026
:103A58009307E0026314F708034714009307A002D2
:103A6800631AF7048327C10013042400138747004F
:103A780083A707002326E10063CA0702232AF1006F
:103A88006F00C0053307E04093E72700232EE100CD
:103A98002328F1006FF09FFBB3876703930610009C
:103AA80013840500B387E7006FF01FEE9307F0FF5C
:103AB8006FF0DFFC13041400232A010093060000B2
:103AC80093070000130690000347040093051400B1
:103AD800130707FD637CE608E39206FA83450400B2
:103AE8001306300017150000130585A4EF000077B2
:103AF8006304050297170000938787A33305F540F1
:103B080093070004B397A7000325010113041400C9
:103B18003365F5002328A1008345040013066000DF
:103B280017150000130505A1130914002304B10299
:103B3800EF00C072630E050897C7FEFF9387074C16
:103B480063980704032701018327C100137707102F
:103B580063080702938747002326F1008327410261
:103B6800B38747012322F1026FF01FD6B38767039B
:103B78009306100013840500B387E7006FF0DFF4A5
:103B88009387770093F787FF938787006FF0DFFCB1
:103B98001307C10097060000938606C21386040027
:103BA800930501011385090097000000E700000054
:103BB8009307F0FF130A0500E312F5FA83D7C40050
:103BC80093F70704E39C07E0032541026FF05FE1E8
:103BD8001307C10097060000938606BE13860400EB
:103BE8009305010113850900EF00801B6FF05FFC4E
:103BF800130101FD232A510183A70501930A070038
:103C080003A785002324810223229102232E310158
:103C1800232C41012326110223202103232861019B
:103C280023267101930905001384050093040600F7
:103C3800138A060063D4E7009307070023A0F40063
:103C480003473404630607009387170023A0F40092
:103C58008327040093F707026388070083A70400FB
:103C68009387270023A0F40003290400137969002F
:103C7800631E0900130B9401930BF0FF8327C40004
:103C880003A70400B387E7406342F90883270400C9
:103C98008346340493F70702B336D0006390070CC9
:103CA8001306340493050A0013850900E7800A0007
:103CB8009307F0FF6308F506832704001306400006
:103CC80003A7040093F767008326C4009304000049
:103CD8006398C700B384E64063D4040093040000EB
:103CE80083278400032704016356F700B387E7405E
:103CF800B384F400130900001304A401130BF0FFAC
:103D080063902409130500006F0000029306100059
:103D180013060B0093050A0013850900E7800A00C3
:103D2800631A75031305F0FF8320C102032481027F
:103D380083244102032901028329C101032A810145
:103D4800832A4101032B0101832BC10013010103C5
:103D580067800000130919006FF05FF23307D40081
:103D680013060003A301C7040347540493871600EE
:103D7800B307F40093862600A381E7046FF05FF28F
:103D8800930610001306040093050A001385090022
:103D9800E7800A00E30865F9130919006FF05FF678
:103DA800130101FD232481022322910223202103F0
:103DB800232E310123261102232C4101232A5101EC
:103DC800232861019389060083C685019307E006CD
:103DD80013090600930405001384050013863504AF
:103DE8006388F62863EAD70693073006638EF60AD7
:103DF80063EED700638C062A93078005638AF61E54
:103E0800930A24042301D4046F00800B930740060F
:103E18006386F60093079006E394F6FE8327040072
:103E28000325070093F6070893054500638E0608E7
:103E3800832705002320B70063D807001307D002A3
:103E4800B307F040A301E404970600009386066FC9
:103E58001307A0006F00800D93073007638EF624C8
:103E680063E2D7029307F006638EF606930700070E
:103E7800E398F6F883A7050093E7070223A0F50067
:103E88006F00400193075007638EF604930780077D
:103E9800E398F6F693078007A302F4049706000058
:103EA8009386066B6F00801583270700938A250485
:103EB8009386470083A707002320D7002381F504B2
:103EC800930710006F00402293F60704832705002C
:103ED8002320B700E38206F69397070193D707419B
:103EE8006FF09FF5832504008327070013F8050862
:103EF80013854700630808002320A70083A707004D
:103F08006F00400193F505042320A700E38805FE10
:103F180083D707001307F0066380E61497060000AE
:103F28009386C6611307A000A301040483254400F7
:103F38002324B40063C80500032504001375B5FFE6
:103F48002320A40063960700930A060063820502F3
:103F5800930A0600B3F5E702938AFAFFB385B60021
:103F680083C505002380BA00B3D5E70263FEE70ED8
:103F7800930780006314F7028327040093F7170060
:103F8800638E0700032744008327040163C8E70002
:103F980093070003A38FFAFE938AFAFF330656416C
:103FA8002328C40013870900930609001306C100DB
:103FB8009305040013850400EFF09FC3130AF0FF74
:103FC800631A45131305F0FF8320C10203248102FD
:103FD80083244102032901028329C101032A8101A3
:103FE800832A4101032B01011301010367800000AB
:103FF800A382D504970600009386465483250400BF
:104008000325070013F80508832705001305450055
:10401800630808022320A70013F7150063060700AA
:1040280093E505022320B40013070001E39E07EE81
:104038008325040093F5F5FD2320B4006FF0DFEE2F
:1040480013F805042320A700E30808FC9397070149
:1040580093D707016FF05FFC970600009386064E22
:10406800130780006FF05FEC938705006FF09FEEF9
:1040780083A605008327070083A5450113F80608D2
:1040880013854700630A08002320A70083A70700B9
:1040980023A0B7006F0080012320A70093F6060431
:1040A80083A70700E38606FE2390B70023280400B1
:1040B800930A06006FF01FEF8327070003A6450049
:1040C80093050000938647002320D70083AA0700A2
:1040D80013850A00EF008018630605003305554173
:1040E8002322A400832744002328F400A301040406
:1040F8006FF05FEB8326040113860A00930509001D
:1041080013850400E7800900E30E45EB83270400CC
:1041180093F72700639407048327C1000325C4008D
:10412800E354F5EA138507006FF01FEA93061000C1
:1041380013860A009305090013850400E780090027
:10414800E30265E9130A1A008327C4000327C100A4
:10415800B387E740E34CFAFC6FF01FFC130A00003A
:10416800930A9401130BF0FF6FF01FFE130101FF78
:104178002324810013040500138505009305060018
:10418800138606009707000023A607602326110060
:10419800EFC04F8C9307F0FF631CF50097070000F2
:1041A8009387475F83A70700638407002320F400F1
:1041B8008320C100032481001301010167800000EE
:1041C800130101FF23248100130405001385050052
:1041D800930506009707000023AE075A232611000F
:1041E800EFB09FF39307F0FF631CF50097070000FB
:1041F8009387475A83A70700638407002320F400A6
:104208008320C1000324810013010101678000009D
:10421800130101FF23248100130405001385050001
:104228009707000023A8075623261100EFB09FF434
:104238009307F0FF631CF5009707000093878755E5
:1042480083A70700638407002320F4008320C100AC
:1042580003248100130101016780000093F5F50F25
:104268003306C5006316C50013050000678000000B
:1042780083470500E38CB7FE130515006FF09FFE1A
:0442880038460100B3
:10428C002E2E2F7372632F4273702F4472697665D2
:10429C00722F686D655F706C69632E63000000009F
:1042AC000A205F5F504C4943204578637574652044
:1042BC0045727221200000002E2E2F7372632F4244
:1042CC0073702F4472697665722F686D655F7469BF
:1042DC006D65722E630000002E2E2F7372632F42B9
:1042EC0073702F4472697665722F686D655F7561A6
:1042FC0072742E63000000007265636569766564F4
:10430C0020646174613A2025640D00005B575249AA
:10431C0054455D20696D67416464723A2025642CB4
:10432C0020646174613A2025640A00005B524541A7
:10433C00445D20696D674164647252643A2025645F
:10434C002C20646174613A2025640A00241C01004D
:10435C00301C0100181C0100301C0100001C010065
:10436C00301C0100F41B0100301C0100301C01004A
:10437C00301C0100301C0100301C01000C1C010021
:10438C00536F66747761726520496E7465727270D2
:10439C0075742E2E2E2E00002F6E205F5F457863D5
:1043AC00657074696F6E204F6363757265643A2033
:1043BC00466174616C204661756C74212F6E00002F
:1043CC004253505F56455253494F4E3A202578215F
:1043DC000A000000C7EBCAE4C8EB3136B8F6D7D6F2
:1043EC00BDDAB5C4D7D6B7FBCAFDBEDD0A0D0000D9
:1043FC00BDD3CAD5B5BDB5C4CAFDBEDDA3BA0000D8
:10440C000A4253505F56455253494F4E3A20257835
:10441C00210A00005B52657365745D20777220661B
:10442C006C61673A2025642C20726420666C61678D
:10443C003A202564200D00000D777220666C6167B0
:10444C003A2025642C20726420666C61673A202522
:10445C0064200D00BDD3CAD5B5BDB5C4CAFDBEDD43
:10446C00A3BA2025640D0000466C61736820494492
:10447C00A3BA202578200A002530327800000000ED
:10448C0053656E64446174613B20307825780A0072
:10449C005265616420446174613A20307825780A51
:1044AC00000000004572723A2046696C656E616DC1
:1044BC00652D2573A3AC204C696E652D25640A000F
:1044CC0000000000000000000000000000000000E0
:1044DC0000000000000000000000000000000000D0
:1044EC0000000000000000000000000000000000C0
:1044FC0000000000000000000000000000000000B0
:10450C00000000000000000000000000000000009F
:10451C00000000000000000000000000000000008F
:10452C00232D302B20000000686C4C00656667451D
:10453C004647000030313233343536373839414252
:10454C0043444546000000003031323334353637B1
:10455C0038396162636465660000000000001F006A
:10456C007C0000007C1000000000008001000100B5
:10457C000400000004100000020000000200020011
:10458C0008000000081000000400000003000800F0
:10459C0020000000201000000001000004000900B1
:1045AC0024000000241000000002000005000A0096
:1045BC00280000002810000000040000060019006C
:1045CC0064000000641000000000000207000400FA
:1045DC001000000010100000100000000800050082
:1045EC001400000014100000200000000900060058
:1045FC001800000018100000400000000A001E0007
:10460C007800000078100000000000400B000C0047
:10461C003000000030100000001000000C000D00F5
:10462C0034000000341000000020000000000000E6
:10463C00EC4401000C450100CC44010000000000DA
:10464C00000000000000000000000000000000005E
:10465C00000000000000000000000000000000004E
:10466C00000000000000000000000000000000003E
:10467C00000000000000000000000000000000002E
:10468C00000000000000000000000000A047010036
:10469C00000030000000300038460100000000002F
:0646AC0000000000000008
:0400000310000000E9
:00000001FF
